:020000040800F2
:10000000005000208900000800F002F800F02CF8F1
:100010000AA090E8000C82448344AAF10107DA4563
:1000200001D100F021F8AFF2090EBAE80F0013F089
:10003000010F18BFFB1A43F0010318471803000013
:10004000280300000023002400250026103A28BFC2
:1000500078C1FBD8520728BF30C148BF0B6070473A
:100060001FB51FBD10B510BD00F018F81146FFF701
:10007000F7FF00F061F900F036F803B4FFF7F2FF84
:1000800003BC00F057F8000000F056F9024B18606E
:10009000D0F800D04168084708ED00E0754600F050
:1000A0002BF8AE4605006946534620F0070085460A
:1000B00018B020B500F024F8BDE820404FF000064D
:1000C0004FF000074FF000084FF0000B21F0070140
:1000D000AC46ACE8C009ACE8C009ACE8C009ACE883
:1000E000C0098D46704710B50446AFF30080204626
:1000F000BDE81040FFF7C1BF004870470000002076
:1001000000B54FF0160085B0694601AA0A60ABBE83
:100110000198002802BF0548C01D20F00700039980
:10012000029A049B05B000BD090000006000002099
:100130007047000001491820ABBEFEE72600020010
:1001400000B5034603E04FF47A7000F005F8181E7E
:10015000A3F10103F7D100BD00EBC001C9004FF0CE
:10016000E0225161002191610521116100BF4FF032
:10017000E021096901F480310029F8D004214FF011
:10018000E022116170472DE9F0410246002500266A
:10019000002000230024002791F803C00CF00F0575
:1001A00091F803C00CF0100CBCF1000F03D091F8D3
:1001B00002C04CEA050591F800C0BCF1000F31D037
:1001C000146800202BE04FF0010C0CFA00F3B1F89A
:1001D00000C00CEA03069E4220D183004FF00F0CB2
:1001E0000CFA03F7BC4305FA03FC4CEA040491F84B
:1001F00003C0BCF1280F06D14FF0010C0CFA00FC33
:10020000C2F814C00AE091F803C0BCF1480F05D150
:100210004FF0010C0CFA00FCC2F810C0401C08287A
:10022000D1D31460B1F800C0BCF1FF0F34DD5468C5
:1002300000202EE000F1080C4FF0010808FA0CF342
:10024000B1F800C00CEA03069E4221D183004FF0B2
:100250000F0C0CFA03F7BC4305FA03FC4CEA040448
:1002600091F803C0BCF1280F05D100F1080C08FA81
:100270000CF8C2F8148091F803C0BCF1480F07D104
:1002800000F1080C4FF0010808FA0CF8C2F81080D1
:10029000401C0828CED35460BDE8F081416170470E
:1002A0000161704710B5044600F02CF82046FFF7B6
:1002B00047FF00F01DF82046FFF742FF10BD000089
:1002C00008B50121102000F027F810208DF8030058
:1002D0008002ADF8000003208DF802006946034853
:1002E000FFF751FF00F00EF808BD000000100140BC
:1002F00010B54FF480410248FFF7D2FF10BD000057
:100300000010014010B54FF480410248FFF7C6FFCE
:1003100010BD00000010014029B1064A9269024355
:10032000044B9A6104E0034A92698243014B9A614B
:10033000704700000010024010B5FFF7C1FFC82051
:10034000FFF7B0FF0248FFF7A1FE002010BD00003C
:100350000050000864030008000000206000000056
:04036000440000084D
:040000050800008966
:00000001FF
